:1000000095C30000C0C30000BEC30000BCC3000015
:10001000BAC30000B8C30000B6C30000B4C30000F8
:10002000B2C30000B0C30000AEC30000ACC3000008
:10003000AAC30000A8C30000A6C30000A4C3000018
:10004000A2C30000A0C300009EC300009CC3000028
:100050000C94C01698C3000096C300000C94AB1B10
:1000600092C300000C947B1E0C94BF1F8CC3000035
:100070008AC3000088C3000086C3000084C3000058
:1000800082C3000080C300007EC300007CC3000068
:100090000C94BB1E0C94FE1F76C3000074C30000BA
:1000A00072C3000070C300006EC300006CC3000088
:1000B0006AC3000068C3000066C3000064C3000098
:1000C00062C3000060C300005EC300000C94FB1E0E
:1000D0000C943D2058C300000C943B1F0C947C20D2
:1000E00052C300004120000000000000000000009A
:1000F0000000000000000000000001800E00000071
:1001000000000003C00F00000000000007000F0007
:10011000000000003C07000781F80000003F8E004F
:100120000787F80000001FFC0007FFE00000000048
:100130003FE0FFF0003C0000003FFFFEEE007C00CF
:1001400000003CFFF8FF01F00000007C00007F8F02
:10015000E000000078000073FE000000007800005E
:1001600071FC0000000070000030F8000000007812
:10017000000033F8000000007FFFFE7FFE0000005B
:10018000007FFFFFFE0F00000007FC003FFF07C0DD
:1001900000001FFC0000FFC30000001F3C3FC0FF29
:1001A000E0000000001CFFFFC000000000001CF089
:1001B0003F8000000000000FE03F800000000000D2
:1001C0000FE03F80000000000007F03F000000004B
:1001D000000007F03E00000000000003FCFE0000ED
:1001E0000000000001BFFC000000000000019F8033
:1001F00000000000000000000000000000000000FF
:1002000000000000000008080000000000000000DE
:1002100000003E41554155493E003E7F6B7F6B7764
:100220003E0022777F7F3E1C0800081C3E7F3E1C5C
:100230000800081C2A7F2A081C00081C3E7F3E0874
:100240001C00001C3E3E3E1C00FFFFE3C1C1C1E399
:10025000FF00001C2222221C00FFFFE3DDDDDDE3A6
:10026000FF000F03053948483000083E081C2222D1
:100270001C0018141010307060000F19111337761D
:100280006000082A1C771C2A080060787E7F7E7830
:100290006000030F3F7F3F0F0300081C2A082A1C41
:1002A000080066666666006666003F65653D050592
:1002B00005000C324824124C3000000000007F7F03
:1002C0007F00081C2A082A1C3E00081C3E7F1C1CBC
:1002D0001C001C1C1C7F3E1C0800080C7E7F7E0C32
:1002E000080008183F7F3F18080000007070707FFA
:1002F0007F000014227F22140000081C1C3E3E7F59
:100300007F007F7F3E3E1C1C0800000000000000B4
:100310000000183C3C181800180036361400000085
:10032000000036367F367F363600081E201C023C21
:10033000080060660C18306606003C663C2865665E
:100340003F001818183000000000603018181830EE
:100350006000060C1818180C060000361C7F1C36AE
:1003600000000008083E080800000000003030309F
:1003700060000000003C0000000000000000006081
:10038000600000060C18306000003C666E76666601
:100390003C001818381818187E003C66060C3060AF
:1003A0007E003C66061C06663C000C1C2C4C7E0C39
:1003B0000C007E607C0606663C003C66607C6666DF
:1003C0003C007E660C0C181818003C66663C66669D
:1003D0003C003C66663E06663C0000181800181893
:1003E00000000018180018183000060C1830180CFF
:1003F000060000003C003C0000006030180C183083
:1004000060003C66061C1800180038445C58423CEA
:1004100000003C66667E666666007C66667C666694
:100420007C003C66606060663C007C666666666672
:100430007C007E60607C60607E007E60607C6060CE
:1004400060003C6660606E663C006666667E66665E
:1004500066003C18181818183C001E0C0C0C6C6C2C
:100460003800666C7870786C660060606060606010
:100470007E0063777F6B6363630063737B6F676387
:1004800063003C66666666663C007C6666667C6009
:1004900060003C6666666E3C06007C66667C786C36
:1004A00066003C66603C06663C007E5A18181818C8
:1004B00018006666666666663E0066666666663C48
:1004C00018006363636B7F7763006363361C366376
:1004D00063006666663C181818007E060C183060CB
:1004E0007E001E18181818181E00006030180C0620
:1004F0000000781818181818780008142241000015
:1005000000000000000000007F000C0C060000004E
:10051000000000003C063E663E006060607C66664F
:100520007C0000003C6660663C000606063E66668F
:100530003E0000003C667E603C001C3630307C3063
:100540003000003E66663E063C006060607C666689
:1005500066000018001818183C000C000C0C6C6C9D
:1005600038006060666C786C6600181818181818E7
:100570001800000063777F6B6B0000007C7E66666E
:10058000660000003C6666663C00007C66667C6037
:100590006000003C6C6C3C0D0F0000007C666660E7
:1005A000600000003E403C027C000018187E1818D5
:1005B00018000000666666663E0000000066663C45
:1005C00018000000636B6B6B3E000000663C183C3B
:1005D0006600000066663E063C0000003C0C1830D9
:1005E0003C000E18183018180E00181818001818AB
:1005F00018007018180C1818700000003A6C0000F1
:100600000000081C366341417F00002100240027C0
:10061000002A002D00300033000101000004010712
:10062000010A0100002200250028002B002E0031C5
:1006300000340002010000050108010B0100002048
:10064000002300260029002C002F003200000100AA
:10065000000301060109010505050507050808084D
:1006600008020202020A0A08080404040401010143
:10067000010101010103030303030303030407074B
:10068000070C0C0C0C0C0C0C0C02020202060606E9
:1006900006060606060B0B0B0B0B0B0B0B010210D1
:1006A000202008081020401020408002010201088C
:1006B000040201010204081020408080402010083C
:1006C0000402018004020180402010080402010895
:1006D00004020101020408102040800102040810F5
:1006E0002040800000090A02080B0C0D07060304D5
:1006F00001000000000000000000000000000000F9
:1007000000000000000000000000000000000011D8
:10071000100F0000000000000000000000000000BA
:1007200000000000000000000000EB2111241FBEAB
:10073000CFEFD1E2DEBFCDBF00E00CBF12E0A0E002
:10074000B2E0EAEBFBE400E00BBF02C007900D92C1
:10075000A237B107D9F71BBE15E0A2E7B2E001C08E
:100760001D92A836B107E1F717E0CCE2D7E004C04C
:100770002297FE010E94D725CA32D107C9F70E94ED
:1007800021230C94DB253CCCFC01161617068CF4B7
:10079000828193818617970764F0141615064CF42E
:1007A0008417950734F081E0848B768B658B508FAE
:1007B000478B0895DC0116161706FCF412968D91EE
:1007C0009C91139786179707C4F014161506ACF47E
:1007D0008417950794F0CA010197FC01EE0FFF1FE3
:1007E000EE0FFF1FE80FF91FE60FF71F3197EE0F0F
:1007F000FF1FEA0FFB1F128E118E0895DC011616E3
:10080000170614F512968D919C91139786179707EA
:10081000DCF014161506C4F484179507ACF0CA0171
:10082000019721E030E0FC01EE0FFF1FEE0FFF1FEC
:10083000E80FF91FE60FF71FE21BF30BEE0FFF1F88
:10084000EA0FFB1F328F218F0895DC011616170661
:1008500004F512968D919C91139786179707CCF00B
:1008600014161506B4F4841795079CF0CA01019775
:10087000FC01EE0FFF1FEE0FFF1FE80FF91FE60F41
:10088000F71F3197EE0FFF1FEA0FFB1F818D928D2F
:1008900008950895FC01858996890895FC0187894A
:1008A000908D0895FC018281938108952F923F924B
:1008B0004F925F926F927F928F929F92AF92BF9270
:1008C000CF92DF92EF92FF920F931F93DF93CF931C
:1008D000CDB7DEB72D970FB6F894DEBF0FBECDBFF4
:1008E0004C011B015A874987161617060CF0D8C011
:1008F000DC0112968D919C911397861797070CF443
:10090000CFC0141615060CF0CBC0841795070CF455
:10091000C7C05296ED91FC915397F887EF831E96CE
:100920002D913C911F973E832D83C90162E070E0B9
:100930000E9471256C877D87D40116964D905D903D
:100940006D907C9019971A962D913D914D915C91E7
:100950001D9729833A834B835C83CA01B901A301A4
:1009600092010E94BF23EC85FD859F01442737FD3E
:100970004095542F6D817E815B01CC24B7FCC094DF
:10098000DC2C8823ECF4CA01B9010E945E247B01AF
:100990008C01C601B5010E945E242DEC3CEC4CECB0
:1009A0005DE30E940E259B01AC01C801B7010E94C6
:1009B0005A239B01AC0169817A818B819C811AC089
:1009C000CA01B9010E945E247B018C01C601B501F8
:1009D0000E945E242DEC3CEC4CEC5DE30E940E2565
:1009E0009B01AC01C801B7010E945A239B01AC01D5
:1009F000C301B2010E940E250E942B246B87EF8059
:100A0000F8848C859D85E80EF91ED40114968D908E
:100A10009C901597089421083108ED81FE812E9E47
:100A2000B0012F9E700D3E9E700D11246E0D7F1D26
:100A3000882777FD8095982F0E945E24A30192015C
:100A40000E940E250E942B245B016C0129853A85AA
:100A5000215030404D815E81249FC001259F900D23
:100A6000349F900D1124E80EF91E0027F7FC009525
:100A7000102FC801B7010E945E2429813A814B8161
:100A80005C810E940E250E942B249B01AC01C401B5
:100A90006A2D422F2B8501E0EE24EA940E94E21297
:100AA0002D960FB6F894DEBF0FBECDBFCF91DF916C
:100AB0001F910F91FF90EF90DF90CF90BF90AF907C
:100AC0009F908F907F906F905F904F903F902F906E
:100AD00008952F923F924F925F926F927F928F92E2
:100AE0009F92AF92BF92CF92DF92EF92FF920F93BD
:100AF0001F93DF93CF93CDB7DEB7AA970FB6F894C5
:100B0000DEBF0FBECDBF6C01161617060CF056C126
:100B1000DC0112968D919C911397861797070CF420
:100B20004DC1141615060CF049C1841795070CF435
:100B300045C152968D919C9153971E96ED90FC90D5
:100B40001F97615070406E9D50016F9DB00C7E9D4F
:100B5000B00C1124A80EB91E415050404E9D3001DA
:100B60004F9D700C5E9D700C1124680E791EB501AE
:100B7000882777FD8095982F0E945E24698B7A8B59
:100B80008B8B9C8BB701882777FD8095982F0E94CF
:100B90005E242DEC3CEC4CEC5DE30E940E251B0129
:100BA0002C01D60116968D919D910D90BC91A02D92
:100BB0008D879E87AF87B88BB301882777FD809597
:100BC000982F0E945E2469877A878B879C87D6013D
:100BD0001A968D919D910D90BC91A02D8D839E8331
:100BE000AF83B887F6018480958069897A898B897B
:100BF0009C89A20191010E945B232D853E854F8532
:100C000058890E940E250E9430246D8B7E8B8F8B1D
:100C1000988F69857A858B859C85A20191010E94B8
:100C20005B232D813E814F8158850E940E250E94B5
:100C30003024698F7A8F8B8F9C8FB5016E0D7F1D4D
:100C4000882777FD8095982F0E945E24A20191014C
:100C50000E945A232D853E854F8558890E940E2576
:100C60000E9430246D8F7E8F8F8F98A3E60CF71C27
:100C70000027F7FC0095102FC801B7010E945E24E1
:100C8000A20191010E945A232D813E814F815885F6
:100C90000E940E250E9430247B018C01C4016D89C5
:100CA000498D2D8D0E2DEE24E3940E940A14D60159
:100CB0001E968D909C901F97B401882777FD809594
:100CC000982F0E945E242DEC3CEC4CEC5DE30E94DE
:100CD0000E257B018C01F6012680378040845184EB
:100CE000D6011A968D919D910D90BC91A02D89836E
:100CF0009A83AB83BC830480F581E02DFAA7E9A732
:100D0000A80CB91CCC24B7FCC094DC2CC601B501DE
:100D10000E945E24A80197010E945A23A20191011A
:100D20000E940E250E94302469A37AA38BA39CA362
:100D300069857A858B859C85A80197010E945B2334
:100D400029813A814B815C810E940E250E943024CA
:100D50006DA37EA38FA398A769897A898B899C89C3
:100D6000A80197010E945B23A20191010E940E2518
:100D70000E9430245B016C01680C791C882477FC8C
:100D80008094982CC401B3010E945E24A8019701AD
:100D90000E945A2329813A814B815C810E940E2551
:100DA0000E9430247B018C0189A59AA569A14DA1DF
:100DB0002A2D0E2DEE24E3940E940A14AA960FB653
:100DC000F894DEBF0FBECDBFCF91DF911F910F9181
:100DD000FF90EF90DF90CF90BF90AF909F908F905B
:100DE0007F906F905F904F903F902F9008952F923B
:100DF0003F924F925F926F927F928F929F92AF92AB
:100E0000BF92CF92DF92EF92FF920F931F93DF93E7
:100E1000CF93CDB7DEB760970FB6F894DEBF0FBEA5
:100E2000CDBF9E878D87DC0114968D919C9115977F
:100E300060E09DD7ED85FE852288338854C0AD855E
:100E4000BE851A96ED90FD900D911C911D97B101F4
:100E5000882777FD8095982F0E945E24ED85FE857A
:100E600026813781408551850E940E250E943024BD
:100E70003B014C01AD85BE8514964D905C90159755
:100E8000E985FA85BF01882777FD8095982F0E9414
:100E90005E24A80197010E940E250E9430245B0168
:100EA0006C012F853889B901882777FD8095982FA7
:100EB0000E945E24A80197010E940E250E94302402
:100EC0007B018C01C201662D4A2D262D0E2DEE24AC
:100ED000E3940E940A14AD85BE851E968D919C9167
:100EE0001F97280E391EED85FE850288F389E02DB7
:100EF000FA87E987AD85BE8550960D90BC91A02DEF
:100F0000AE0FBF1FB88BAF87A215B3050CF097CFFC
:100F100056C0ED85FE8546805780608471842985A2
:100F20003A85B901882777FD8095982F0E945E2425
:100F3000AD85BE851A962D913D914D915C911D9781
:100F40000E940E250E9430244B015C01ED85FE8538
:100F5000248035802B853C85B901882777FD8095D5
:100F6000982F0E945E24A30192010E940E250E94E8
:100F700030246B017C01B801882777FD8095982F7C
:100F80000E945E24A30192010E940E250E9430243B
:100F90008B019C01C1016C2D482D202F082DEE24C2
:100FA000E3940E940A14AD85BE851E968D919C9196
:100FB0001F97E985FA85E80FF91FFA87E987AD855C
:100FC000BE8552960D90BC91A02DBC87AB87ED8558
:100FD000FE85008911890A0F1B1F29853A85021792
:100FE00013070CF096CF8489882309F4BBC0C6840C
:100FF000D784B601882777FD8095982F0E945E24BC
:101000007B018C012DEC3CEC4CE45EE30E940E2550
:101010004B015C01AD85BE8516968D919D910D901D
:10102000BC91A02D8D839E83AF83B887AD85BE858F
:101030001A968D919D910D90BC91A02D89839A83D4
:10104000AB83BC83B601660F771F882777FD809539
:10105000982F0E945E242DEC3CEC4CE45EEB0E9449
:101060000E259B01AC01C801B7010E945B237B01E7
:101070008C01ED85FE850480F581E02DF88BEF87EE
:10108000AD85BE8555968D919C91569701978C9D07
:10109000B0018D9D700D9C9D700D1124EB85FC851C
:1010A0006E0F7F1F882777FD8095982F0E945E2402
:1010B000A50194010E945B232D813E814F815885BB
:1010C0000E940E250E9430241B012C01AD85BE8597
:1010D00057968D919C9158970197FC01EC9DC0010A
:1010E000ED9D900DFC9D900D11242B853C85280FC6
:1010F000391FB901882777FD8095982F0E945E24BB
:10110000A50194010E945B2329813A814B815C8176
:101110000E940E250E9430243B014C01C801B701FA
:101120002D813E814F8158850E940E250E943024DA
:101130005B016C01C801B70129813A814B815C8157
:101140000E940E250E9430247B018C018F85988996
:10115000622D462D2A2D0E2DEE24E394CC24CA9424
:101160000E94CF1461E0E62EF12C28C0D1018D91B0
:101170009C918130910531F48D859E85B801A70140
:1011800095DB07C0892B29F48D859E85B801A701C1
:10119000A0DC0F5F1F4FE2E0F0E02E0E3F1E980133
:1011A00021503040AD85BE8512968D919C9113974C
:1011B00028173907DCF20894E11CF11C9701215033
:1011C0003040ED85FE8582819381281739079CF494
:1011D000190153E0220C331C5A95E1F7220F331FFB
:1011E000220E331E29E130E0220E331E2E0E3F1E4A
:1011F00001E010E0D4CF60960FB6F894DEBF0FBECA
:10120000CDBFCF91DF911F910F91FF90EF90DF90B5
:10121000CF90BF90AF909F908F907F906F905F9096
:101220004F903F902F900895EF92FF920F931F934E
:10123000CF93DF93EC017B018A018AE592E09983E9
:101240008883CB01E8D590E0AA2797FDA095BA2F17
:10125000BC01CD010E945E2420E030E048EC52E465
:101260000E94C3236E837F8388879987C701D9D55E
:1012700090E0AA2797FDA095BA2FBC01CD010E944E
:101280005E2420E030E048EC52E40E94C3236A87E9
:101290007B878C879D8782E190E09F878E87C8013E
:1012A000880F991F9C01F3E0220F331FFA95E1F795
:1012B000280F391F398B288B84E690E0821B930B13
:1012C00062E070E00E9471257B8B6A8BC8010397F6
:1012D000039718F41B830A830AC0033011051CF41A
:1012E00083E090E002C085E090E09B838A83FD82EA
:1012F000EC8281E08C8B81E090E0988F8F8B9E8BCD
:101300008D8BFE01799680E090E022E030E0318321
:101310002083338322833583248337832683318755
:10132000208701963A968530910589F7DF91CF9114
:101330001F910F91FF90EF900895FC01CB0103974F
:10134000039710F471AF60AF0895FC0180AD91ADCB
:1013500008958F929F92AF92BF92CF92DF92EF92B9
:10136000FF920F931F93DF93CF93CDB7DEB72C97E8
:101370000FB6F894DEBF0FBECDBF4C01FC0186A5B1
:1013800097A560E0F4D4F40186A597A566E072E025
:101390000E945415F401E2A4F3A493E0EE0CFF1CA8
:1013A0009A95E1F7A4A4B5A483E0AA0CBB1C8A9586
:1013B000E1F786A597A52FD5082FF40186A597A557
:1013C0002AD5C82E10E0C8018E199F0962E070E08E
:1013D0000E94712594012E5F3F4FF40186A597A5C9
:1013E00040E00E94ED15DD24C6018A199B0962E0E8
:1013F00070E00E94712594012A5E3F4FF40186A59A
:1014000097A549E00E94ED15F40186A597A503D59F
:1014100090E08154904062E070E00E947125F401F8
:1014200086A597A542E124EE30E000E010E0EE242E
:10143000CC24FAD48091000290910102A091020282
:10144000B091030289839A83AB83BC8380910402A9
:1014500090910502A0910602B09107028D839E83B0
:10146000AF83B8878091080290910902A0910A0287
:10147000B0910B0289879A87AB87BC87F401E0A8FB
:10148000F1A802A913A9C801B70120E030E040E2A9
:1014900051E40E940E250E942B245B01C801B70174
:1014A00020E030E040E252E40E940E250E942B240E
:1014B0006B01C801B70120E030E04CE852E40E9423
:1014C0000E250E942B248B01F40186A597A56A2D79
:1014D00041E49E012F5F3F4F0E94ED15F40186A568
:1014E00097A56C2D41E49E012B5F3F4F0E94ED15A7
:1014F000F40186A597A5602F41E49E01275F3F4F29
:101500000E94ED15F40180AD91AD8430910539F064
:101510008530910531F0039739F4B50103C0B60168
:1015200001C0B80165507040F40186A597A54CE351
:1015300022E202E1EE24E394CC24CA940E94CF1468
:101540002C960FB6F894DEBF0FBECDBFCF91DF91C2
:101550001F910F91FF90EF90DF90CF90BF90AF90D1
:101560009F908F900895EF92FF920F931F93DF93B8
:10157000CF93CDB7DEB765970FB6F894DEBF0FBE39
:10158000CDBF7C018B0180E692E0F70191838083DF
:1015900077A766A7CB013FD490E0AA2797FDA09537
:1015A000BA2FBC01CD010E945E2420E030E048EC5F
:1015B00052E40E94C323F70160AB71AB82AB93ABE3
:1015C000C8012FD490E0AA2797FDA095BA2FBC019F
:1015D000CD010E945E2420E030E048EC52E40E94FD
:1015E000C323F70164AB75AB86AB97ABDE011196F5
:1015F000ECE0F2E089E001900D928150E1F7DE012C
:101600001A96E5E1F2E08CE001900D928150E1F74D
:1016100089E090E0F70193A782A78CE090E095A77E
:1016200084A7A701D70120E030E0BE016F5F7F4FA4
:1016300009C0FB01E20FF31F808111968C93119773
:101640002F5F3F4F1196F70182A593A52817390701
:1016500084F320E030E0BE01665F7F4F08C0FB01ED
:10166000E20FF31F8081FA01858B2F5F3F4F4F5FA1
:101670005F4FF70184A595A52817390784F383E008
:1016800090E091AF80AF65960FB6F894DEBF0FBEC5
:10169000CDBFCF91DF911F910F91FF90EF900895F3
:1016A000AF92BF92CF92DF92EF92FF920F931F9370
:1016B000CF93DF935C018091780290917902EAD810
:1016C0009093950280939402809178029091790290
:1016D000E5D8909397028093960200E010E0C1E075
:1016E000D0E00DC06091940270919502C901AE01E5
:1016F000ACD88A159B0511F40F5F1F4F219680917E
:10170000780290917902CED82091780230917902B6
:101710008C179D073CF7C901C5D80817190709F4AC
:101720006AC000E010E0C1E0D0E00DC04091960238
:1017300050919702C901BE0188D88A159B0511F402
:101740000F5F1F4F21968091780290917902AAD85D
:1017500020917802309179028C179D073CF7C901DE
:10176000A1D80817190709F446C000E010E0C1E04D
:10177000D0E00AC0C901BE01AE0167D88A159B0539
:1017800011F40F5F1F4F219680917802909179029A
:1017900089D820917802309179028C179D0754F7EF
:1017A000C90180D80817190731F18091780290910A
:1017B000790278D86C018C01C1E0D0E0EE24FF24DE
:1017C0000DC0C901B801AE0140D88A159B0519F4B6
:1017D0000894E11CF11C21960150104020917802E0
:1017E00030917902CC16DD0664F7C9015BD820E0A0
:1017F000E816F90609F421E0822FDF91CF911F91BD
:101800000F91FF90EF90DF90CF90BF90AF90089531
:10181000CF93DF9380914A020E94161D909391020C
:1018200080939002019771F5E0914A02F0914B028A
:10183000EE0FFF1FE458FD4F80819181892B11F538
:101840000E94F31BE0914A02F0914B02EF01CC0F92
:10185000DD1FCA57DD4F28813981442737FD409568
:10186000542F621B730B840B950B63337105810539
:10187000910540F0F0934502E09344020E94F31B6F
:101880007983688380914A0290914B02FC01EE0FAC
:10189000FF1FE458FD4F2091900230919102318357
:1018A0002083019690934B0280934A020A9734F06A
:1018B00084E090E090934B0280934A02DF91CF91B5
:1018C0000895EF92FF920F931F93CF93DF93A0DFC2
:1018D00080914602909147028233910509F054C0ED
:1018E000809144029091450287309105B1F0883093
:1018F000910561F1069709F0FCC180917A029091FF
:101900007B0223DDBC01909393028093920283308B
:101910009105B9F0615070400FC080917A029091AA
:101920007B0213DDBC019093930280939202853079
:10193000910539F06F5F7F4F80917A0290917B0221
:10194000FCDCA0917A02B0917B02F1C080917A0216
:1019500090917B02FADC7C018BE490E00E942E23C4
:101960008C0162E772E0A7015FDC109379020093BB
:101970007802D801ED91FC910190F081E02DC80131
:10198000199583E390E06DC18333910509F084C11B
:1019900080914402909145028630910509F460C01F
:1019A000873091053CF48430910581F0059709F06A
:1019B000A0C12CC08830910509F4C2C088309105BF
:1019C0000CF47FC0099709F094C15FC1809178023F
:1019D000909179020E944A04909395028093940218
:1019E00080917802909179020E944E04AC0190930C
:1019F0009702809396028130910509F446C1609167
:101A00009402709195024150504087C080917802B5
:101A1000909179020E944A049093950280939402D7
:101A200080917802909179020E944E048C019093EB
:101A300097028093960280917802909179020E9499
:101A400052040817190709F420C16091940270919B
:101A5000950240919602509197024F5F5F4F5DC093
:101A600080917802909179020E944A0490939502A5
:101A70008093940280917802909179020E944E04A2
:101A8000AC019093970280939602609194027091BA
:101A900095026130710509F4F8C061507040809181
:101AA0007802909179020E94C403E0917802F0914B
:101AB0007902A081B1812D913C91CF01F901199555
:101AC000E4C080917802909179020E944A04909338
:101AD00095028093940280917802909179020E94FD
:101AE0004E04909397028093960200919402109175
:101AF000950280917802909179020E945204081711
:101B0000190709F4C2C060919402709195026F5F49
:101B10007F4F409196025091970280917802909168
:101B200079020E94C403A0917802B0917902ED91EC
:101B3000FC9111970190F081E02DCD011995A5C080
:101B400080914802909149028536910509F049C07B
:101B500080917802909179020E944A0490939502B4
:101B60008093940280917802909179020E944E04B1
:101B7000AC019093970280939602609194027091C9
:101B8000950280917802909179020E942504029733
:101B900009F07BC060919402709195024091960289
:101BA0005091970280917802909179020E94DA0315
:101BB00080E090E075DD882309F051C0A0917802A3
:101BC000B0917902ED91FC9111970190F081E02D97
:101BD000CD01199586E690E09093490280934802E2
:101BE00054C08636910509F050C0809178029091DA
:101BF00079020E944A049093950280939402809106
:101C00007802909179020E944E04AC019093970261
:101C1000809396026091940270919502809178026F
:101C2000909179020E942504029779F560919402BF
:101C3000709195024091960250919702809178029E
:101C4000909179020E94FE03C5E6D0E0D09349024C
:101C5000C093480281E090E023DD882339F084E3DB
:101C600090E090934702809346020FC0E091780283
:101C7000F0917902A081B1812D913C91CF01F901C0
:101C80001995D0934902C09348028FEF9FEF90932C
:101C90004502809344022DC0C49759F580914802B3
:101CA000909149028536910521F08636910509F516
:101CB0000BC082E792E060E05AD082E792E060E0F9
:101CC00040E021E232E00AC082E792E060E04FD0DB
:101CD00082E792E060E040E022E332E07ED78FEFDF
:101CE0009FEF909345028093440290934902809322
:101CF0004802DF91CF911F910F91FF90EF900895CF
:101D00000F931F938CED94E040E855E260E070E0A3
:101D10000E94BB2082E792E061E048E720E697D688
:101D20008AE390E00E942E23182F092F62E772E0C9
:101D30001ADC10937A0200937B0214E0812F62E098
:101D40000E94631C1F5F1A30C9F782E792E060E0CF
:101D50000ED0E0917A02F0917B02A081B1812D91A9
:101D60003C91CF01F90119951F910F910895FC0144
:101D7000613009F1613030F0623009F04BC040E071
:101D800050E03EC01282138240E050E009C0E09172
:101D9000A902F091AA02E40FF51F10824F5F5F4F76
:101DA0008091A3022091A402829FC00111244817B0
:101DB00059076CF308951282138240E050E03FEF20
:101DC00009C0E091A902F091AA02E40FF51F308347
:101DD0004F5F5F4F8091A3022091A402829FC001B8
:101DE0001124481759076CF30895E091A902F09166
:101DF000AA02E40FF51F8081809580834F5F5F4FBB
:101E00008091A3022091A402829FC001112448174F
:101E100059075CF308958091A402880F880F880FFA
:101E200008958091A30208952F923F924F925F925E
:101E30006F927F928F929F92AF92BF92CF92DF92DA
:101E4000EF92FF920F931F93DF93CF93CDB7DEB73F
:101E50002C970FB6F894DEBF0FBECDBF9A87898747
:101E6000A42F29012E2D2C2C462F477078E0F72E19
:101E7000F41AEE2039F4F201E00FF11FE4910F5F44
:101E80001F4F2E2F222039F4F201E00FF11FE491B1
:101E90000F5F1F4F2E2E822F90E087709070322F91
:101EA000369536953695892B29F0822F8770332EFB
:101EB000339402C0332E88E0669566956695262F8A
:101EC00030E03E832D83642E7724B301680F711DAB
:101ED0008FEF90E0AC01062E02C0559547950A940D
:101EE000E2F749839C010F2C02C0220F331F0A9492
:101EF000E2F72C834B8368507040062E02C0959504
:101F000087950A94E2F7685F7F4F8A83CC24DD24AB
:101F10008A2F90E098878F83A32CBB240894A10874
:101F2000B108A5C02F8138852C0D3D1D8091A402DC
:101F300090E0289FD001299FB00D389FB00D11244B
:101F4000ED81FE81AE0FBF1FF1E03F1611F48981D4
:101F500001C080E0E985FA85208131812A0F3B1F8D
:101F6000F901E080FC818F2B8E21F9018083A20191
:101F7000400F511F0F5F1F4FFA013491E985FA8519
:101F8000808091808A0E9B1E832F90E0062C02C0D9
:101F9000959587950A94E2F7F4012081282B2083F8
:101FA00011964501800E911E28C0E985FA850190A1
:101FB000F081E02DEA0FFB1FE080832F90E00F2CD3
:101FC00002C0880F991F0A94E2F78083FA013491C6
:101FD000E985FA850190F081E02DEA0FFB1F832F40
:101FE00090E0062C02C0959587950A94E2F720812F
:101FF000282B208311960F5F1F4F4F5F5F4F0815EF
:10200000190598F26830710574F41197E985FA851D
:10201000808091808A0E9B1E1196FB81EF22F40135
:1020200080818E2980836930710564F0E985FA85A5
:10203000808091808A0E9B1EF4018081FA818F231B
:10204000F4018083E985FA85808091808A0E9B1E49
:10205000832F90E00F2C02C0880F991F0A94E2F79B
:10206000F4012081282B20830894C11CD11CC214A8
:1020700008F458CF2C960FB6F894DEBF0FBECDBF34
:10208000CF91DF911F910F91FF90EF90DF90CF9054
:10209000BF90AF909F908F907F906F905F904F9088
:1020A0003F902F900895CF92DF92EF92FF920F937F
:1020B0001F93CF93DF93413079F1413038F04230B4
:1020C00009F454C0433009F0F4C09AC0A091A902A9
:1020D000B091AA022091A40230E0862F90E0829F66
:1020E000F001839FF00D929FF00D1124EA0FFB1F6A
:1020F0008091A30290E0829FA001839F500D929F48
:10210000500D11244A0F5B1F03C080818D931192E3
:102110004E175F07D0F7CDC04091A9025091AA0297
:102120002091A40230E08091A30290E0289FD0018A
:10213000299FB00D389FB00D1124A40FB51F862F15
:1021400090E0BC01629FC001639F900D729F900D53
:102150001124FD01E81BF90B05C080818C931082CE
:1021600011973197E417F507C0F7A3C0062F077042
:10217000669566956695E62EFF2410E0C02FD0E0A8
:1021800068E070E06C1B7D0B36C02091A402129FAA
:10219000C0011124E091A902F091AA02E80FF91FF1
:1021A000DF01AE0DBF1D422F50E0425050404E0F98
:1021B0005F1F12C030E00C2E02C0220F331F0A94A2
:1021C000E2F71D928C9190E0062E02C095958795BE
:1021D0000A94E2F7282B21932C914A175B0750F7BA
:1021E000822F90E0002E02C0880F991F0A94E2F718
:1021F0001C9280831F5F8091A302181730F259C090
:10220000062F0770669566956695862F90E0EE24FA
:10221000FF24E81AF90A10E0E2E0CE2ED12CC02FFC
:10222000D0E068E070E06C1B7D0B3EC08091A402A2
:10223000482F50E09A0121503040189FC0011124CE
:10224000280F391FE091A902F091AA02E20FF31FB3
:10225000DF01AE0DBF1DC601841B950BAC014E0FF7
:102260005F1F13C030E00C2E02C0359527950A94ED
:10227000E2F71C928E9190E0062E02C0880F991F03
:102280000A94E2F7282B208331972C91A417B507E5
:1022900048F7822F90E0002E02C0959587950A940A
:1022A000E2F71C9280831F5F8091A302181708F445
:1022B000BDCFDF91CF911F910F91FF90EF90DF90F5
:1022C000CF900895382F4130E1F48091A402689FA7
:1022D000C0011124232F269526952695820F911D46
:1022E000E091A902F091AA02E80FF91F377080E887
:1022F00090E002C0959587953A95E2F72081282BCA
:1023000039C0582F569556955695282F30E04423BE
:10231000C9F48091A402689FC0011124850F911D0A
:10232000E091A902F091AA02E80FF91F277030701E
:102330008FE79FEF02C0959587952A95E2F7208158
:10234000282318C08091A402689FC0011124850F22
:10235000911DE091A902F091AA02E80FF91F2770E0
:10236000307080E890E002C0959587952A95E2F755
:102370002081282720830895522F262F30E0809136
:10238000A40290E0F3E0880F991FFA95E1F728176F
:10239000390744F48091A302481720F4862F642F54
:1023A000452F90CF08950F93CF93DF93EC01E62F45
:1023B000B9014217530721F46E2F202FDDDF5DC0D6
:1023C0002417350728F4842FA90130E0932FBC018E
:1023D0008E2F877020E830E002C0359527958A95CA
:1023E000E2F78091A40290E0489FD001499FB00D90
:1023F000589FB00D1124E695E695E695AE0FB11DF8
:10240000013091F40DC0E881F981EA0FFB1F808152
:10241000822B80838091A402A80FB11D4F5F5F4F74
:102420006417750780F729C0002379F013C0E8818D
:10243000F981EA0FFB1F8081822380838091A402AF
:10244000A80FB11D4F5F5F4F01C02095641775073E
:1024500070F713C0023089F40DC0E881F981EA0FEA
:10246000FB1F8081822780838091A402A80FB11D69
:102470004F5F5F4F6417750780F7DF91CF910F9122
:1024800008950F931F93CF93DF93EC01162FBA019A
:10249000F901B02F4217530721F4412F202F6CDF91
:1024A0008CC02417350728F4842FB90130E0932F0E
:1024B000FC01CB01877090704FEF50E09A0102C091
:1024C000359527958A95E2F7A22F93E07695679543
:1024D0009A95E1F72091A402129F90011124620FB6
:1024E000731FCF018770907002C0559547958A95EC
:1024F000E2F7942F90958F0183E0169507958A95C2
:10250000E1F7020F131F6017710711F4A92390E080
:10251000B130D9F4E881F981E60FF71F80818A2B69
:102520008083AB014F5F5F4F8FEF05C0E40FF51F56
:1025300080834F5F5F4FE881F98140175107B0F307
:10254000E40FF51F8081892B37C0BB23D1F4E881CC
:10255000F981E60FF71FA09580818A238083AB0164
:1025600003C0E40FF51F10824F5F5F4FE881F981D0
:1025700040175107B0F3E40FF51F90958081892330
:102580001BC0B230D1F4E881F981E60FF71F8081DA
:102590008A278083AB0105C0E40FF51F80818095F9
:1025A00080834F5F5F4FE881F98140175107A0F3A7
:1025B000E40FF51F808189278083DF91CF911F91E0
:1025C0000F9108952F923F924F925F926F927F9258
:1025D0008F929F92AF92BF92CF92DF92EF92FF9233
:1025E0000F931F93DF93CF93CDB7DEB72E970FB620
:1025F000F894DEBF0FBECDBF9C878B87562E642E0E
:10260000122F702E4E2C30E03E872D873FEFE316C1
:1026100071F0262F30E0A9018D859E85481B590B4E
:10262000280F391F8B859C85662D0E2D2ADF31E002
:10263000832E912CED85FE858E1A9F0ACF01880F7F
:10264000991F22273327281B390B38872F83612FA7
:10265000660D852D472D36DE662D611B852D472D98
:1026600031DE812F850D662D472D2CDE852D811BBA
:10267000662D472D27DE362D3F5F3E83862D815008
:102680008D83E52DF0E0FA83E9833197FC83EB83BA
:1026900029803A800894211C311CC12E21E030E0B1
:1026A0003A872987AA24BB24DD2495C097FC0CC057
:1026B0008D859E8501979E878D87EF81F88532965F
:1026C000F887EF838E0E9F1E0894A11CB11C2985EC
:1026D0003A852E5F3F4F3A8729873FEF4316D1F166
:1026E0008C2D90E0ED85FE858E179F0791F01D855E
:1026F000612F660D8B859C854B815C819101042D3A
:10270000C0DE662D611B8B859C854B815C819101B0
:10271000B8DE8D2D90E08A159B05D1F02D853E8584
:10272000A216B306A9F0E980FA80E21AF30AC9807A
:10273000DA80C20ED31E8B859C856E81A70196011F
:10274000042D9FDE8B859C856D81A701960199DE06
:10275000CD84DA2C89859A85880E991EEA2CE50CA1
:102760000D85102F160D8E2D612F472DABDD952D6C
:102770009A19F92E892F612F472DA4DD162D101BD4
:102780008E2D612F472D9EDD8F2D612F472D9ADDD8
:10279000F02EF50C8F2D6E81472D94DD152D101B1D
:1027A000812F6E81472D8EDD8F2D6D81472D8ADD26
:1027B000812F6D81472D86DDEE81EF5FEE83FD81F8
:1027C000F150FD832B813C81215030403C832B8391
:1027D0000894211C311C8D859E85A816B9060CF421
:1027E00065CF2E960FB6F894DEBF0FBECDBFCF914A
:1027F000DF911F910F91FF90EF90DF90CF90BF90EE
:10280000AF909F908F907F906F905F904F903F9090
:102810002F9008952F923F924F925F926F927F92E6
:102820008F929F92AF92BF92CF92DF92EF92FF92E0
:102830000F931F93DF93CF9300D00F92CDB7DEB7E6
:10284000FC01562FEA82C62EDD248091A402682F57
:1028500070E0A3E0660F771FAA95E1F76C157D0580
:102860000CF486C03091A302341708F481C0822F83
:1028700090E0681779070CF47BC0301708F478C033
:10288000521741F4CF01652F50E0202F30E00E2D7C
:102890008ADD6EC0401741F4CF01642F452F50E010
:1028A00030E00A81EEDD64C0E42EFF24251738F401
:1028B0009601281B390B3C832B835FEF06C0DC019C
:1028C000AC19BD09BC83AB8351E0802F90E00417A5
:1028D00028F49701281B390B4FEF04C09C012E19D7
:1028E0003F0941E0EB81FC81E217F30744F48B815F
:1028F0009C813C832B839C01F1E0F98301C0198208
:102900002901440C551C82012B813C81021B130BB5
:102910001901220C331CAA24BB24642E772467FCE3
:102920007094852E992487FC90941DC08C2D6E2D5B
:102930004A81C8DC17FD0AC03981313019F4C80C4E
:10294000D91C02C0E60CF71C0219130989818130D9
:1029500019F4E60CF71C02C0C80CD91C040D151D97
:102960000894A11CB11CAB81BC81AA15BB05F4F66F
:102970000F900F900F900F90CF91DF911F910F91BB
:10298000FF90EF90DF90CF90BF90AF909F908F908F
:102990007F906F905F904F903F902F9008956F922F
:1029A0007F928F929F92AF92BF92CF92DF92EF92DF
:1029B000FF920F931F93CF93DF935C01962ED42E3B
:1029C000722E602E8E2C1C2D1F3FB9F0C42EE42ECB
:1029D000FF24E00EF11CC62FD0E0C20FD11D08C0AD
:1029E000C5016C2D492D50E09E01012F4ADDC39495
:1029F0008C2D90E08E159F059CF3F72CF90CC501EA
:102A0000692D4D2D2F2D0D2DE82C04DF162D1D0DBC
:102A1000C501692D4D2D292D012FFCDEC5016F2D1E
:102A20004D2D2F2DF7DEC501692D412F2F2DF2DE03
:102A3000DF91CF911F910F91FF90EF90DF90CF909A
:102A4000BF90AF909F908F907F906F900895FF926E
:102A50000F931F93CF93DF93EC01F62E022F842F59
:102A6000887F11F481E01AC0142F169516951695DB
:102A7000219FC00111240E94451D9C0199838883D8
:102A8000009711F484E00AC01A821B828F2D612FF7
:102A9000402FA9D0CE0160E06AD980E0DF91CF91CC
:102AA0001F910F91FF900895FC0175836483089531
:102AB000DC0113964C9113971496ED91FC911597A8
:102AC00031966491242F30E08091A30290E0861B20
:102AD0009109281739071CF0CD0140E0E4CA640FC2
:102AE00013966C930895CF92EF920F931F93DC018E
:102AF000022F1496ED91FC9115973296849131979F
:102B0000C4903197E490081B0C9D800111240D5F47
:102B10001F4FCD019F0188D91F910F91EF90CF904A
:102B200008951F93CF93DF93EC01162F6A3069F05D
:102B30006B3030F4662309F43AC06830A9F408C059
:102B40006D3081F06E3081F432C01A82B1DF2FC057
:102B5000EC81FD81E4916A816E1B6A834B8120E2E6
:102B6000C2DF25C01A8223C06A81EC81FD81E49115
:102B7000262F30E08091A40290E043E0880F991F57
:102B80004A95E1F78E1B91092817390734F01A820C
:102B9000CE018EDFCE016A8101C0CE014B81212F93
:102BA000A2DFEC81FD81E4918A818E0F8A83DF911F
:102BB000CF911F9108950F931F93CF93DF938C01B3
:102BC000EB0103C02196C801ACDF68816623D1F711
:102BD000DF91CF911F910F910895FC016283438390
:102BE000B901E9CF0895FF920F931F93F82EE62FB6
:102BF000142F3093AA022093A9026093A402409359
:102C0000A30210929C0210929D0210929E021092BA
:102C10009F02882319F084E091E002C088ED90E0E3
:102C2000612F70E00E94712561506093A6020091AF
:102C3000A6020093A7022E2F30E083E0220F331F5D
:102C40008A95E1F7442737FD4095542F60EE72E0F6
:102C500080E090E00E94A625243069F0253018F429
:102C6000233061F410C0253019F0263039F408C043
:102C70008EE498E10AC084E998E107C0273018F093
:102C80008FEF97E102C08EEC98E19093AC028093B5
:102C9000AB020F9A259A17982D9A249A82EC80936A
:102CA000800089E180938100412F50E0202F33275D
:102CB00027FD3095FF2011F12F5F3F4F429FC0014C
:102CC000439F900D529F900D112462E070E00E948E
:102CD0007125709561957F4F64566093A00287ECD3
:102CE0008093A50287E08093A80288E391E0909307
:102CF000A2028093A1028FEF93E021C02F5F3F4F8C
:102D0000429FC001439F900D529F900D112462E09D
:102D100070E00E947125709561957F4F65576093B3
:102D2000A0028FEB8093A50283E08093A80286E047
:102D300091E09093A2028093A10287EF93E0909399
:102D40008700809386008AE490E0909389008093C6
:102D500088008091A1029091A202019690939B021B
:102D600080939A0283E897E19093AE028093AD023C
:102D700081E080936F0078941F910F91FF900895E8
:102D80001F920F920FB60F920BB60F9211242F9332
:102D90003F934F935F936F937F938F939F93AF93E3
:102DA000BF93EF93FF93E0914C02F0914D02199580
:102DB000E091AD02F091AE021995FF91EF91BF91B4
:102DC000AF919F918F917F916F915F914F913F91C3
:102DD0002F910F900BBE0F900FBE0F901F90189564
:102DE00020919A0230919B028091A00290E02817D6
:102DF000390779F410929902109298028091A602F4
:102E00008093A70289E297E19093AE028093AD028E
:102E100016C020919A0230919B028091A10290915C
:102E2000A2022817390759F483E897E19093AE027C
:102E30008093AD02E0914E02F0914F02199580917E
:102E40009A0290919B02019690939B0280939A0222
:102E50000895309184002091A5022A50231B23500D
:102E6000F0F72D5F19F02A9511F001C00000E091F4
:102E7000AB02F091AC0219958091A702882389F4E6
:102E80008091A6028093A7022091A40280919802CB
:102E900090919902820F911D9093990280939802CC
:102EA00003C081508093A70240919A0250919B02E7
:102EB0004F5F5F4F2091A602332727FD30952F5F8C
:102EC0003F4F8091A30290E0BC01269FC001279F45
:102ED000900D369F900D11242091A002820F911D1C
:102EE0004817590731F480EF96E19093AE02809332
:102EF000AD0280919A0290919B02019690939B0261
:102F000080939A02089520919A0230919B028091B9
:102F1000A1029091A202281739070CF44EC08CEA46
:102F200093E0909389008093880010929B02109206
:102F30009A0280919C0290919D02A0919E02B09174
:102F40009F020196A11DB11D80939C0290939D024A
:102F5000A0939E02B0939F028091AF029091B00225
:102F6000A091B102B091B2020097A105B10509F19B
:102F70008091AF029091B002A091B102B091B202E3
:102F8000181619061A061B0684F58091AF02909157
:102F9000B002A091B102B091B2020197A109B109AA
:102FA0008093AF029093B002A093B102B093B202AB
:102FB0001CC01092B1002C9818C020919A02309138
:102FC0009B028091A802992787FD909528173907C1
:102FD00061F48AE490E0909389008093880080EF08
:102FE00096E19093AE028093AD0280919A02909107
:102FF0009B02019690939B0280939A0208950F93EF
:10300000CF93DF93A091A902B091AA028091980278
:10301000909199022091A402EC01AC0FBD1F02B166
:103020000F7703C000FA07F902B90D90000007FA04
:1030300007F902B900000000000006FA07F902B91A
:1030400000000000000005FA07F902B900000000C6
:10305000000004FA07F902B900000000000003FABA
:1030600007F902B900000000000002FA07F902B9EE
:1030700000000000000001FA07F902B92A9591F654
:103080000000000000FA07F902B902B10F7707FB50
:1030900007F902B9DF91CF910F9108950F93CF9364
:1030A000DF93A091A902B091AA0280919802909119
:1030B00099022091A402EC01AC0FBD1F02B10F7761
:1030C00003C000FA07F902B90D9007FA07F902B92F
:1030D0000000000006FA07F902B90000000005FA36
:1030E00007F902B90000000004FA07F902B900006C
:1030F000000003FA07F902B90000000002FA07F91C
:1031000002B900002A9501FA07F902B9D1F60000C8
:1031100000FA07F902B902B10F7707FB07F902B904
:10312000DF91CF910F9108950F93CF93DF93A091EB
:10313000A902B091AA0280919802909199022091DF
:10314000A402EC01AC0FBD1F02C0000C02B80D9030
:10315000000002B800000000000C02B800000000EF
:10316000000C02B800000000000C02B800000000D3
:10317000000C02B800000000000C02B80000000CB7
:103180002A9502B811F70000000C02B800000000F8
:1031900000001798DF91CF910F9108950F93CF936F
:1031A000DF93A091A902B091AA0280919802909118
:1031B00099022091A402EC01AC0FBD1F2E3191F0B9
:1031C0002D3151F02C3149F02B3141F02A3139F0B9
:1031D000293131F0283129F01CC032C048C05EC00E
:1031E00074C08AC00D9002B80000000C02B8000044
:1031F000000C02B80000000C02B80000000C02B87D
:103200000000000C02B80000000C02B80000000C26
:1032100002B80D9002B80000000C02B80000000CCB
:1032200002B80000000C02B80000000C02B8000058
:10323000000C02B80000000C02B80000000C02B83C
:103240000D9002B80000000C02B80000000C02B89B
:103250000000000C02B80000000C02B80000000CD6
:1032600002B80000000C02B80000000C02B80D907B
:1032700002B80000000C02B80000000C02B8000008
:10328000000C02B80000000C02B80000000C02B8EC
:103290000000000C02B80000000C02B80D9002B84B
:1032A0000000000C02B80000000C02B80000000C86
:1032B00002B80000000C02B80000000C02B80000C8
:1032C000000C02B80000000C02B80D9002B800001B
:1032D000000C02B80000000C02B80000000C02B89C
:1032E0000000000C02B80000000C02B80000000C46
:1032F00002B80000000C02B80D9002B80000000CEB
:1033000002B80000000C02B80000000C02B8000077
:10331000000C02B80000000C02B80000000C02B85B
:103320000000000C02B80D9002B80000000C02B8BA
:103330000000000C02B80000000C02B80000000CF5
:1033400002B80000000C02B80000000C02B8000037
:10335000000C02B80D9002B80000000C02B800008A
:10336000000C02B80000000C02B80000000C02B80B
:103370000000000C02B80000000C02B80000000CB5
:1033800002B80D9002B80000000C02B80000000C5A
:1033900002B80000000C02B80000000C02B80000E7
:1033A000000C02B80000000C02B80000000C02B8CB
:1033B0000D9002B80000000C02B80000000C02B82A
:1033C0000000000C02B80000000C02B80000000C65
:1033D00002B80000000C02B80000000C02B80D900A
:1033E00002B80000000C02B80000000C02B8000097
:1033F000000C02B80000000C02B80000000C02B87B
:103400000000000C02B80000000C02B80D9002B8D9
:103410000000000C02B80000000C02B80000000C14
:1034200002B80000000C02B80000000C02B8000056
:10343000000C02B80000000C02B80D9002B80000A9
:10344000000C02B80000000C02B80000000C02B82A
:103450000000000C02B80000000C02B80000000CD4
:1034600002B80000000C02B80D9002B80000000C79
:1034700002B80000000C02B80000000C02B8000006
:10348000000C02B80000000C02B80000000C02B8EA
:103490000000000C02B80D9002B80000000C02B849
:1034A0000000000C02B80000000C02B80000000C84
:1034B00002B80000000C02B80000000C02B80000C6
:1034C000000C02B80D9002B80000000C02B8000019
:1034D000000C02B80000000C02B80000000C02B89A
:1034E0000000000C02B80000000C02B80000000C44
:1034F00002B80D9002B80000000C02B80000000CE9
:1035000002B80000000C02B80000000C02B8000075
:10351000000C02B80000000C02B80000000C02B859
:103520000D9002B80000000C02B80000000C02B8B8
:103530000000000C02B80000000C02B80000000CF3
:1035400002B80000000C02B80000000C02B80D9098
:1035500002B80000000C02B80000000C02B8000025
:10356000000C02B80000000C02B80000000C02B809
:103570000000000C02B80000000C02B80D9002B868
:103580000000000C02B80000000C02B80000000CA3
:1035900002B80000000C02B80000000C02B80000E5
:1035A000000C02B80000000C02B80D9002B8000038
:1035B000000C02B80000000C02B80000000C02B8B9
:1035C0000000000C02B80000000C02B80000000C63
:1035D00002B80000000C02B80D9002B80000000C08
:1035E00002B80000000C02B80000000C02B8000095
:1035F000000C02B80000000C02B80000000C02B879
:103600000000000C02B80D9002B80000000C02B8D7
:103610000000000C02B80000000C02B80000000C12
:1036200002B80000000C02B80000000C02B8000054
:10363000000C02B80D9002B80000000C02B80000A7
:10364000000C02B80000000C02B80000000C02B828
:103650000000000C02B80000000C02B80000000CD2
:1036600002B80D9002B80000000C02B80000000C77
:1036700002B80000000C02B80000000C02B8000004
:10368000000C02B80000000C02B80000000C02B8E8
:103690000D9002B80000000C02B80000000C02B847
:1036A0000000000C02B80000000C02B80000000C82
:1036B00002B80000000C02B80000000C02B80D9027
:1036C00002B80000000C02B80000000C02B80000B4
:1036D000000C02B80000000C02B80000000C02B898
:1036E0000000000C02B80000000C02B80D9002B8F7
:1036F0000000000C02B80000000C02B80000000C32
:1037000002B80000000C02B80000000C02B8000073
:10371000000C02B80000000C02B80D9002B80000C6
:10372000000C02B80000000C02B80000000C02B847
:103730000000000C02B80000000C02B80000000CF1
:1037400002B80000000C02B8000000001798DF91DA
:10375000CF910F9108951F920F920FB60F921124DF
:103760002F933F938F939F93AF93BF938091B70213
:103770009091B802A091B902B091BA023091BB0207
:103780000196A11DB11D232F2D5F2D3720F02D5740
:103790000196A11DB11D2093BB028093B7029093A7
:1037A000B802A093B902B093BA028091B30290918B
:1037B000B402A091B502B091B6020196A11DB11D4F
:1037C0008093B3029093B402A093B502B093B60273
:1037D000BF91AF919F918F913F912F910F900FBE0D
:1037E0000F901F9018958FB7F8942091B7023091E1
:1037F000B8024091B9025091BA028FBFB901CA0113
:103800000895789484B5826084BD84B5816084BD58
:1038100085B5826085BD85B5816085BDEEE6F0E049
:10382000808181608083E1E8F0E0108280818260A5
:103830008083808181608083E0E8F0E08081816026
:103840008083E1EBF0E0808184608083E0EBF0E056
:10385000808181608083E1E9F0E080818260808303
:10386000808181608083E0E9F0E0808181608083F5
:10387000E1EAF0E0808182608083808181608083E2
:10388000E0EAF0E0808181608083E1E2F1E0808124
:1038900082608083808181608083E0E2F1E08081CA
:1038A00081608083EAE7F0E08081846080838081AA
:1038B0008260808380818160808380818068808352
:1038C0001092C1000895CF93DF93482F50E0CA01B2
:1038D0008356994FFC013491495A594FFA0184910A
:1038E000882369F190E0880F991FFC01E75FF94F89
:1038F000A591B491FC01ED5DF94FC591D49166237A
:1039000051F42FB7F8948C91932F909589238C9331
:10391000888189230BC0623061F42FB7F8948C91B1
:10392000932F909589238C938881832B88832FBF35
:1039300006C09FB7F8948C91832B8C939FBFDF9127
:10394000CF910895893009F449C08A30A0F48430B9
:1039500051F1853040F4823079F1833000F58130C7
:1039600009F063C026C0873079F1883098F5863039
:1039700009F05BC025C08D3009F442C08E3028F4B8
:103980008B30B1F18C30C0F52DC0803109F442C0CC
:10399000813109F445C08F3009F047C037C08091AC
:1039A00080008F7703C0809180008F7D809380009E
:1039B000089584B58F7702C084B58F7D84BD089546
:1039C0008091B0008F7703C08091B0008F7D80938D
:1039D000B0000895809190008F7707C0809190008B
:1039E0008F7D03C080919000877F80939000089521
:1039F0008091A0008F7707C08091A0008F7D03C0C9
:103A00008091A000877F8093A0000895809120017D
:103A10008F7703C0809120018F7D809320010895CE
:103A200080912001877F8093200108950F931F9339
:103A3000482F50E0CA018D51994FFC012491CA01D1
:103A40008356994FFC010491495A594FFA01149138
:103A5000112319F420E030E014C0222311F0822F4A
:103A600071DF812F90E0880F991F835C994FFC01D3
:103A7000A591B4918C9120E030E0802311F021E0F9
:103A800030E0C9011F910F9108950F931F93CF93B9
:103A9000DF93BC018230910510F462E070E0E091A8
:103AA0006605F091670540E050E0A0E0B0E024C07A
:103AB0008081918186179707D0F08617970771F458
:103AC00082819381109729F013969C938E9312977D
:103AD0002CC0909367058093660527C0411551055A
:103AE00019F08417950718F48D01AC01EF01DF017F
:103AF000828193819C01F9013097D1F641155105DE
:103B0000F9F0CA01861B970B8430910580F48A81F5
:103B10009B810115110521F0F8019383828304C074
:103B20009093670580936605FE01329645C0FE01BD
:103B3000E80FF91F619371930297998388833CC0C2
:103B40008091640590916505892B41F48091520222
:103B500090915302909365058093640540915402BF
:103B6000509155024115510541F44DB75EB7809112
:103B7000500290915102481B590B209164053091DD
:103B8000650524173507B0F4CA01821B930B86170D
:103B9000970780F0AB014E5F5F4F8417950750F099
:103BA000420F531F5093650540936405F9016193DB
:103BB000719302C0E0E0F0E0CF01DF91CF911F915F
:103BC0000F910895CF93DF939C01009709F48FC064
:103BD000EC0122971B821A8260916605709167053D
:103BE0006115710581F488819981820F931F20915D
:103BF0006405309165052817390739F5D0936505B7
:103C0000C093640574C0DB0140E050E0AC17BD0711
:103C100008F1BB83AA83FE0121913191E20FF31FCA
:103C2000AE17BF0779F48D919C911197280F391F1A
:103C30002E5F3F4F3983288312968D919C91139765
:103C40009B838A834115510571F4D0936705C09316
:103C500066054DC012968D919C911397AD0100970A
:103C600011F0DC01D3CFDA011396DC93CE931297D7
:103C7000FA0121913191E20FF31FCE17DF0769F4AA
:103C800088819981280F391F2E5F3F4FFA013183B8
:103C900020838A819B8193838283E0E0F0E0DB01D3
:103CA00012968D919C911397009719F0BC01FD011C
:103CB000F6CFAB014E5F5F4FDB018D919C91840F7E
:103CC000951F20916405309165052817390779F40F
:103CD000309729F4109267051092660502C013828E
:103CE0001282425050405093650540936405DF9125
:103CF000CF91089508951F920F920FB60F920BB6B1
:103D00000F9211242F933F934F938F939F93EF9391
:103D1000FF938091C00082FD1DC04091C60020919C
:103D2000FC023091FD022F5F3F4F2F733070809166
:103D3000FE029091FF022817390771F0E091FC0212
:103D4000F091FD02E454FD4F40833093FD02209337
:103D5000FC0202C08091C600FF91EF919F918F916C
:103D60004F913F912F910F900BBE0F900FBE0F9070
:103D70001F90189508951F920F920FB60F920BB6D1
:103D80000F9211242F933F934F938F939F93EF9311
:103D9000FF938091C80082FD1DC04091CE0020910C
:103DA0008403309185032F5F3F4F2F7330708091D4
:103DB0008603909187032817390771F0E0918403F7
:103DC000F0918503EC5BFC4F408330938503209397
:103DD000840302C08091CE00FF91EF919F918F915B
:103DE0004F913F912F910F900BBE0F900FBE0F90F0
:103DF0001F90189508951F920F920FB60F920BB651
:103E00000F9211242F933F934F938F939F93EF9390
:103E1000FF938091D00082FD1DC04091D60020917B
:103E20000C0430910D042F5F3F4F2F733070809141
:103E30000E0490910F042817390771F0E0910C04DB
:103E4000F0910D04E453FC4F408330930D04209314
:103E50000C0402C08091D600FF91EF919F918F9149
:103E60004F913F912F910F900BBE0F900FBE0F906F
:103E70001F90189508951F920F920FB60F920BB6D0
:103E80000F9211242F933F934F938F939F93EF9310
:103E9000FF938091300182FD1DC040913601209139
:103EA0009404309195042F5F3F4F2F7330708091B1
:103EB0009604909197042817390771F0E0919404C3
:103EC000F0919504EC5AFB4F408330939504209376
:103ED000940402C080913601FF91EF919F918F91E0
:103EE0004F913F912F910F900BBE0F900FBE0F90EF
:103EF0001F901895E091E804F091E904E05CFF4F11
:103F00008191919120813181821B930B8F739070ED
:103F1000892B09F0EFDEE0910A05F0910B05E05CDA
:103F2000FF4F8191919120813181821B930B8F737F
:103F30009070892B09F01EDFE0912C05F0912D0582
:103F4000E05CFF4F8191919120813181821B930B25
:103F50008F739070892B09F04DDFE0914E05F09141
:103F60004F05E05CFF4F8191919120813181821B4F
:103F7000930B8F739070892B09F07CCF08951F925B
:103F80000F920FB60F920BB60F9211242F933F93FF
:103F90008F939F93EF93FF932091400330914103C0
:103FA00080914203909143032817390731F480919F
:103FB000C1008F7D8093C10014C0E0914203F09155
:103FC0004303E050FD4F20818091420390914303D1
:103FD00001968F73907090934303809342032093D4
:103FE000C600FF91EF919F918F913F912F910F907C
:103FF0000BBE0F900FBE0F901F9018951F920F923F
:104000000FB60F920BB60F9211242F933F938F93FD
:104010009F93EF93FF932091C8033091C903809140
:10402000CA039091CB032817390731F48091C90056
:104030008F7D8093C90014C0E091CA03F091CB0337
:10404000E857FC4F20818091CA039091CB030196E1
:104050008F7390709093CB038093CA032093CE000C
:10406000FF91EF919F918F913F912F910F900BBEF8
:104070000F900FBE0F901F9018951F920F920FB6C2
:104080000F920BB60F9211242F933F938F939F9310
:10409000EF93FF932091500430915104809152048A
:1040A000909153042817390731F48091D1008F7D06
:1040B0008093D10014C0E0915204F0915304E05F6A
:1040C000FB4F2081809152049091530401968F738D
:1040D000907090935304809352042093D600FF91E4
:1040E000EF919F918F913F912F910F900BBE0F9069
:1040F0000FBE0F901F9018951F920F920FB60F9240
:104100000BB60F9211242F933F938F939F93EF93AE
:10411000FF932091D8043091D9048091DA049091D2
:10412000DB042817390731F4809131018F7D8093AA
:10413000310114C0E091DA04F091DB04E856FB4F42
:1041400020818091DA049091DB0401968F73907046
:104150009093DB048093DA0420933601FF91EF9172
:104160009F918F913F912F910F900BBE0F900FBE9B
:104170000F901F901895AF92BF92DF92EF92FF922F
:104180000F931F93CF93DF93EC017A018B01DD2412
:10419000403081EE580780E0680780E0780711F032
:1041A000DD24D39491E0A92EB12CEC89FD89DD208A
:1041B00069F0C50108A002C0880F991F0A94E2F7B0
:1041C000808360E079E08DE390E005C0108260E8D4
:1041D00074E88EE190E0A801970196D42150304018
:1041E00040405040569547953795279580E12030BF
:1041F000380720F0DD2011F0DD24D7CFE889F989D8
:104200003083EA89FB89208319A2EE89FF894081E6
:1042100021E030E0C9010C8C02C0880F991F0A947C
:10422000E2F7482B4083EE89FF894081C9010D8C5C
:1042300002C0880F991F0A94E2F7482B4083EE8949
:10424000FF894081C9010E8C02C0880F991F0A9412
:10425000E2F7482B4083EE89FF8980810F8C02C0F2
:10426000220F331F0A94E2F7209528232083DF9141
:10427000CF911F910F91FF90EF90DF90BF90AF9083
:104280000895DC011C96ED91FC911D97E05CFF4FB9
:104290002191319180819181281B390B2F733070CE
:1042A000C9010895DC011C96ED91FC911D97E05C1D
:1042B000FF4F20813181E054F040DF01AE5BBF4F02
:1042C0008D919C9111972817390719F42FEF3FEF23
:1042D00007C08D919C91E80FF91F8081282F30E055
:1042E000C9010895DC011C96ED91FC911D97E05CDD
:1042F000FF4F20813181E054F040DF01AE5BBF4FC2
:104300008D919C9111972817390719F42FEF3FEFE2
:1043100010C08D919C911197E80FF91F20818D910C
:104320009C91119701968F73907011969C938E9328
:1043300030E0C9010895DC0191968C919197882312
:1043400039F05496ED91FC915597808186FFF9CF15
:1043500091961C920895CF93DF93EC01EE85FF8533
:10436000E05CFF4F20813181E054F0402F5F3F4FF0
:104370002F733070DF01AE5BBF4F8D919C91119711
:1043800028173907D1F3E05CFF4F80819181E05419
:10439000F040E80FF91F6083EE85FF85E05CFF4F7A
:1043A00031832083EE89FF89208181E090E00F8CAA
:1043B00002C0880F991F0A94E2F7282B208381E01E
:1043C00089A3EC89FD8980818064808381E090E00D
:1043D000DF91CF9108951F931092DF041092DE04B5
:1043E00028EE33E040E050E02093E0043093E10415
:1043F0004093E2045093E30466E672E07093DD04B8
:104400006093DC048CEB92E09093E9048093E804E1
:1044100080E093E09093EB048093EA0485EC90E0D5
:104420009093ED048093EC0484EC90E09093EF047F
:104430008093EE0480EC90E09093F1048093F0047C
:1044400081EC90E09093F3048093F20482EC90E08E
:104450009093F5048093F40486EC90E09093F70435
:104460008093F60414E01093F804B3E0B093F904D9
:10447000A7E0A093FA04F5E0F093FB04E1E0E093F9
:10448000FC04109201051092000520930205309360
:10449000030540930405509305057093FF04609352
:1044A000FE0484E493E090930B0580930A0588E86A
:1044B00093E090930D0580930C058DEC90E0909324
:1044C0000F0580930E058CEC90E09093110580937E
:1044D000100588EC90E0909313058093120589EC09
:1044E00090E090931505809314058AEC90E09093EA
:1044F0001705809316058EEC90E090931905809334
:10450000180510931A05B0931B05A0931C05F09392
:104510001D05E0931E05109223051092220520939D
:104520002405309325054093260550932705709365
:104530002105609320058CEC93E090932D058093EA
:104540002C0580E194E090932F0580932E0585ED56
:1045500090E0909331058093300584ED90E0909346
:1045600033058093320580ED90E09093350580937C
:10457000340581ED90E0909337058093360582ED08
:1045800090E0909339058093380586ED90E0909304
:104590003B0580933A0510933C05B0933D05A093ED
:1045A0003E05F0933F05E0934005109245051092BB
:1045B00044052093460530934705409348055093A2
:1045C0004905709343056093420584E594E0909318
:1045D0004F0580934E0588E994E0909351058093B0
:1045E000500585E391E0909353058093520584E351
:1045F00091E0909355058093540580E391E090936A
:1046000057058093560581E391E090935905809377
:10461000580582E391E090935B0580935A0586E309
:1046200091E090935D0580935C0510935E05B093D7
:104630005F05A0936005F0936105E09362051F910B
:104640000895CF93DF93DDD80E94800ECAE7DFE1A3
:104650000E94610C2097E1F34DDCFACF16CA089551
:10466000CF92DF92EF92FF920F931F93CF93DF933E
:104670007C016B018A01C0E0D0E00FC0D6016D91D2
:104680006D01D701ED91FC910190F081E02DC70102
:104690001995C80FD91F015010400115110571F768
:1046A000CE01DF91CF911F910F91FF90EF90DF909E
:1046B000CF9008955058BB27AA270ED075C166D158
:1046C00030F06BD120F031F49F3F11F41EF45BC148
:1046D0000EF4E095E7FB51C1E92F77D180F3BA17CB
:1046E000620773078407950718F071F49EF58FC170
:1046F0000EF4E0950B2EBA2FA02D0B01B9019001FD
:104700000C01CA01A0011124FF27591B99F0593F40
:1047100050F4503E68F11A16F040A22F232F342F88
:104720004427585FF3CF469537952795A795F040D6
:104730005395C9F77EF41F16BA0B620B730B840BEB
:10474000BAF09150A1F0FF0FBB1F661F771F881FA3
:10475000C2F70EC0BA0F621F731F841F48F48795FB
:1047600077956795B795F7959E3F08F0B3CF9395EA
:10477000880F08F09927EE0F979587950895D9D05F
:1047800008F481E008950CD00FC107D140F0FED0AD
:1047900030F021F45F3F19F0F0C0511139C1F3C07E
:1047A00014D198F39923C9F35523B1F3951B550BF5
:1047B000BB27AA2762177307840738F09F5F5F4FF4
:1047C000220F331F441FAA1FA9F333D00E2E3AF035
:1047D000E0E830D091505040E695001CCAF729D04F
:1047E000FE2F27D0660F771F881FBB1F261737079E
:1047F0004807AB07B0E809F0BB0B802DBF01FF27CE
:1048000093585F4F2AF09E3F510568F0B6C000C133
:104810005F3FECF3983EDCF3869577956795B79507
:10482000F7959F5FC9F7880F911D9695879597F922
:104830000895E1E0660F771F881FBB1F621773079B
:104840008407BA0720F0621B730B840BBA0BEE1FB0
:1048500088F7E095089504D06894B111D9C00895FF
:10486000BCD088F09F5790F0B92F9927B751A0F08E
:10487000D1F0660F771F881F991F1AF0BA95C9F7F4
:1048800012C0B13081F0C3D0B1E00895C0C0672F2D
:10489000782F8827B85F39F0B93FCCF386957795A4
:1048A0006795B395D9F73EF490958095709561958D
:1048B0007F4F8F4F9F4F0895E89409C097FB3EF4B8
:1048C00090958095709561957F4F8F4F9F4F99235D
:1048D000A9F0F92F96E9BB279395F69587957795DB
:1048E0006795B795F111F8CFFAF4BB0F11F460FF9B
:1048F0001BC06F5F7F4F8F4F9F4F16C0882311F0F3
:1049000096E911C0772321F09EE8872F762F05C006
:10491000662371F096E8862F70E060E02AF09A95A1
:10492000660F771F881FDAF7880F9695879597F996
:104930000895990F0008550FAA0BE0E8FEEF161630
:104940001706E807F907C0F012161306E407F50783
:1049500098F0621B730B840B950B39F40A2661F0F7
:10496000232B242B252B21F408950A2609F4A1409A
:10497000A6958FEF811D811D089597F99F6780E8A7
:1049800070E060E008959FEF80EC089500240A94A1
:104990001616170618060906089500240A9412161A
:1049A0001306140605060895092E0394000C11F44D
:1049B000882352F0BB0F40F4BF2B11F460FF04C0FA
:1049C0006F5F7F4F8F4F9F4F089557FD9058440F53
:1049D000551F59F05F3F71F04795880F97FB991F5E
:1049E00061F09F3F79F0879508951216130614061B
:1049F000551FF2CF4695F1DF08C0161617061806A8
:104A0000991FF1CF86957105610508940895E89482
:104A1000BB2766277727CB0197F908950BD0C4CF22
:104A2000B5DF28F0BADF18F0952309F0A6CFABCF99
:104A30001124EECFCADFA0F3959FD1F3950F50E07C
:104A4000551F629FF001729FBB27F00DB11D639F40
:104A5000AA27F00DB11DAA1F649F6627B00DA11DE6
:104A6000661F829F2227B00DA11D621F739FB00D8C
:104A7000A11D621F839FA00D611D221F749F3327FC
:104A8000A00D611D231F849F600D211D822F762F95
:104A90006A2F11249F5750408AF0E1F088234AF092
:104AA000EE0FFF1FBB1F661F771F881F91505040DE
:104AB000A9F79E3F510570F060CFAACF5F3FECF39E
:104AC000983EDCF3869577956795B795F795E795CA
:104AD0009F5FC1F7FE2B880F911D9695879597F9DB
:104AE000089597FB092E07260AD077FD04D049D0F8
:104AF00006D000201AF4709561957F4F0895F6F75F
:104B0000909581959F4F0895A1E21A2EAA1BBB1B79
:104B1000FD010DC0AA1FBB1FEE1FFF1FA217B30789
:104B2000E407F50720F0A21BB30BE40BF50B661F9F
:104B3000771F881F991F1A9469F760957095809563
:104B400090959B01AC01BD01CF01089597FB092E03
:104B500005260ED057FD04D0D7DF0AD0001C38F44C
:104B600050954095309521953F4F4F4F5F4F089599
:104B7000F6F790958095709561957F4F8F4F9F4F79
:104B80000895AA1BBB1B51E107C0AA1FBB1FA61794
:104B9000B70710F0A61BB70B881F991F5A95A9F7E6
:104BA00080959095BC01CD010895EE0FFF1F0590F3
:0A4BB000F491E02D1994F894FFCF62
:104BBA00337833003478340035783500556C7469AD
:104BCA006D617465005469632D5461632D546F657A
:104BDA0000666972737420706C61796572207769F6
:104BEA006E007365636F6E6420706C617965722004
:104BFA0077696E00FFFF320065000400F215F215B6
:104C0A0080006805000000000000F70600000000B0
:104C1A00A90900000000AB21302341217221522151
:024C2A009B21CC
:00000001FF
